:020000040800F2
:10000000F006002099010008F5140008F714000814
:10001000FB140008FF14000803150008000000008E
:1000200000000000000000000000000007150008AC
:1000300009150008000000000B1500080D15000848
:10004000B3010008B3010008B3010008B3010008C0
:10005000B3010008B3010008B3010008B3010008B0
:10006000B3010008B3010008DB140008B301000865
:10007000B30100083D140008B3010008B3010008F3
:10008000B3010008B3010008B3010008B301000880
:10009000B3010008B3010008B3010008C11400084F
:1000A000B3010008B3010008B3010008B301000860
:1000B000B3010008B3010008B3010008B301000850
:1000C000B3010008B3010008B3010008B301000840
:1000D000B3010008B3010008B3010008951400083B
:1000E000B3010008B3010008B301000800F002F8F2
:1000F00000F043F80AA090E8000C82448344AAF17F
:100100000107DA4501D100F038F8AFF2090EBAE87C
:100110000F0013F0010F18BFFB1A43F0010318473B
:100120008C1D0000AC1D0000103A24BF78C878C1B7
:10013000FAD8520724BF30C830C144BF04680C60ED
:10014000704700000023002400250026103A28BF35
:1001500078C1FBD8520728BF30C148BF0B60704739
:10016000782901F06B84002070471FB59DE80300DB
:1001700001F0F4FC1FBD10B510BD01F005FE1146E5
:10018000FFF7F3FF00F0D2FF01F023FE03B4FFF707
:10019000F2FF03BC01F050FE0948804709480047C0
:1001A000FEE7FEE7FEE7FEE7FEE7FEE7FEE7FEE727
:1001B000FEE7FEE704480549054A064B7047000084
:1001C0004F160008ED000008F0000020F0060020A7
:1001D000F0020020F002002031490143314A116051
:1001E000704770B5002100230F22C47804B32D4C52
:1001F000246804F4E064C4F5E064210AC1F1040356
:10020000CA40447804FA03F1847814402143090178
:10021000254C0678A155047804F01F050124AC4054
:1002200005786D11AD0005F1E025C5F8004109E044
:10023000047804F01F050124AC401C4D06787611AB
:1002400045F8264070BD1A4A0A400243154B1B1F51
:100250001A60704739B1134A121D12680243114BDC
:100260001B1D1A6006E00F4A121D126882430D4BD7
:100270001B1D1A607047042808D14FF0E02109695E
:1002800041F004014FF0E022116107E04FF0E0215E
:10029000096921F004014FF0E0221161704700006C
:1002A0000000FA050CED00E000E400E080E100E071
:1002B00080FFFF1F10B50446CC48844208D10121BD
:1002C000042000F02DFB0021042000F029FB46E073
:1002D000C748844208D10121082000F021FB0021F9
:1002E000082000F01DFB3AE0C248844208D10121F9
:1002F000102000F015FB0021102000F011FB2EE073
:10030000BD48844208D10121202000F009FB0021D2
:10031000202000F005FB22E0B848844208D10121EA
:10032000402000F0FDFA0021402000F0F9FA16E02C
:10033000B348844208D10121802000F0F1FA002165
:10034000802000F0EDFA0AE0AE48844207D1012196
:10035000801500F0E5FA0021A01500F0E1FA10BDCB
:1003600010B50121084600F0DBFA0021012000F061
:10037000D7FA10BD2DE9F0410246002500260020E5
:1003800000230024002791F803C00CF00F0591F81A
:1003900003C00CF0100CBCF1000F03D091F802C0A8
:1003A0004CEA050591F800C0BCF1000F31D014688B
:1003B00000202BE04FF0010C0CFA00F3B1F800C064
:1003C0000CEA03069E4220D183004FF00F0C0CFA7A
:1003D00003F7BC4305FA03FC4CEA040491F803C09C
:1003E000BCF1280F06D14FF0010C0CFA00FCC2F84A
:1003F00014C00AE091F803C0BCF1480F05D14FF0DA
:10040000010C0CFA00FCC2F810C0401C0828D1D323
:100410001460B1F800C0BCF1FF0F34DD5468002057
:100420002EE000F1080C4FF0010808FA0CF3B1F8C7
:1004300000C00CEA03069E4221D183004FF00F0C4E
:100440000CFA03F7BC4305FA03FC4CEA040491F8E8
:1004500003C0BCF1280F05D100F1080C08FA0CF814
:10046000C2F8148091F803C0BCF1480F07D100F125
:10047000080C4FF0010808FA0CF8C2F81080401C74
:100480000828CED35460BDE8F0814FF6FF7101809B
:10049000022181700421C1707047024600209368D8
:1004A0000B400BB1012000E0002070470146886836
:1004B00080B2704702460020D3680B400BB1012088
:1004C00000E0002070470146C86880B270470161B3
:1004D0007047416170470AB1016100E041617047B6
:1004E000C16070474FF480320A438261816182614A
:1004F00082698269704702460020434B18684FF6B4
:100500008073184040EA021008433F4B1860704760
:100510003E49C8617047F0B50A4600230024002117
:10052000002500F00046B6F1004F02D1364EF169C9
:1005300001E0354E7168C0F3034583B200F4401604
:10054000B6F5401F08D121F070612F4E766826F075
:1005500070662D4F7E6012E000F48016B6F5801FA5
:1005600006D1032606FA05F4A14341F0706106E0C6
:10057000460D360103FA06F6B14341F0706122B12F
:10058000460D360103FA06F6314300F00046B6F197
:10059000004F02D11C4EF16101E01B4E7160F0BDB5
:1005A00030B500228B071C0F0F2303FA04F2164B01
:1005B00008338C1053F824309343134C08348D10B7
:1005C00044F8253023468C1053F824308C07240F30
:1005D00000FA04F423430C4C08348D1044F8253001
:1005E00030BD0A49DC310860704700000008014056
:1005F000000C0140001001400014014000180140AF
:10060000001C014000200140000001400000204289
:10061000DF48006840F00100DD4908600846406896
:10062000DC490840DA49486008460068DA49084071
:10063000D74908600846006820F480200860084612
:10064000406820F4FE0048604FF41F008860704747
:10065000CF49096821F48031CD4A116011460968FB
:1006600021F480211160B0F5803F03D0B0F5802FD8
:100670000ED106E0C649096841F48031C44A1160D0
:1006800007E0C349096841F4A021C14A116000E0B4
:1006900000BF00BF704710B50146002200230020B4
:1006A0004A11012A02D1BA4C236806E0022A02D17B
:1006B000B74C236A01E0B64C636A01F01F020124C3
:1006C00094401C400CB1012000E0002010BD38B562
:1006D000002000900024002500BF3120FFF7DBFF41
:1006E00005460098401C00900098B0F5A06F01D01E
:1006F000002DF2D03120FFF7CEFF08B1012400E039
:100700000024204638BD01460020A14A106820F090
:10071000F80040EAC10010607047A04908607047C7
:10072000024600209A4B586820F47C1042EA0103EC
:100730001843974B586070479849086670470146C0
:100740000020934A506820F003000843506070472F
:100750008F48406800F00C007047014600208C4A2A
:10076000506820F0F00008435060704701460020B8
:10077000874A506820F4E0600843506070470146A3
:100780000020834A506820F4605040EAC100506065
:10079000704729B17E4A527A02437D4B5A7204E077
:1007A0007B4A527A82437A4B5A7270477B49D831DE
:1007B0000860704701460020754A506820F44040A8
:1007C0000843506070470021714A20321170704A0E
:1007D00082F82010012802D004280AD104E0012167
:1007E0006B4A2032117005E00521694A20321170F0
:1007F00000E000BF00BF7047694908607047644966
:10080000096A0143624A11627047654944390860C8
:10081000704730B500210022002400235C4D6D6834
:1008200005F00C0121B1042905D0082923D105E0E8
:100830005C4D056022E05B4D05601FE0544D6D6826
:1008400005F47012524D6D6805F48034022505EBF5
:1008500092421CB9544D554305600BE04C4D6D68F8
:1008600005F400351DB1504D5543056002E04D4D76
:100870005543056002E04B4D056000BF00BF444D8D
:100880006D6805F0F0010909484D6B5C0568DD40B5
:1008900045603F4D6D6805F4E061090A434D6B5CAE
:1008A0004568DD4085603A4D6D6805F46051C90AC0
:1008B0003E4D6B5C4568DD40C560354D6D6805F4A7
:1008C0004041890B3A4D6B5CC568B5FBF3F505619A
:1008D00030BD29B12E4A526902432D4B5A6104E0C2
:1008E0002B4A526982432A4B5A61704729B1284AE0
:1008F00092690243264B9A6104E0254A9269824339
:10090000234B9A61704729B1214AD2690243204B97
:10091000DA6104E01E4AD26982431D4BDA617047F6
:1009200029B11B4AD2680243194BDA6004E0184A25
:10093000D2688243164BDA60704729B1144A1269B3
:100940000243134B1A6104E0114A12698243104BAF
:100950001A61704712494039086070470F49C864EE
:1009600070470B49C87170470948406A40F0807071
:1009700007494862704701460020054A92680A40CC
:100980000AB1012000E000207047014988727047D9
:10099000001002400000FFF8FFFFF6FE0000424298
:1009A0008004424200127A0000093D00000000204D
:1009B0001000002010B50446FB48844209D10121F3
:1009C0008803FFF7ADFF00214FF48040FFF7A8FF39
:1009D00032E0F648844209D101214804FFF7ADFF17
:1009E00000214FF40030FFF7A8FF25E0F0488442D3
:1009F00009D101218804FFF7A0FF00214FF48020D6
:100A0000FFF79BFF18E0EB48844209D10121C8049D
:100A1000FFF793FF00214FF40020FFF78EFF0BE05C
:100A2000E548844208D101210805FFF786FF00212F
:100A30004FF48010FFF781FF10BD2DE9F04786B01D
:100A400005460E460024A24600BFA1460027B089F5
:100A500000B100BF2F462C8A4CF6FF700440F0888E
:100A600004432C82AC894EF6F3100440B0883189DF
:100A70000843718908430443AC81AC8A4FF6FF40B8
:100A80000440B0890443AC8201A8FFF7C2FEC64807
:100A9000874202D1DDF810A001E0DDF80CA0A889A2
:100AA00000F4004040B10AEBCA0000EB0A103168C4
:100AB0004900B0FBF1F807E00AEBCA0000EB0A10AE
:100AC00031688900B0FBF1F86420B8FBF0F0040154
:100AD0002009642101FB1089A88900F4004040B17D
:100AE000322000EBC900B0FBF1F000F00700044336
:100AF00008E0322000EB09106421B0FBF1F000F0B7
:100B00000F0004432C8106B0BDE8F0874FF4165166
:100B1000016000218180C18001810C21418100217F
:100B20008181704710B502460020108A4FF2FF0302
:100B300018400B884C8823438C882343CC8823435C
:100B40001843108210BD0021018041808180C18046
:100B5000704721B1828942F40052828104E0828987
:100B60004DF6FF731A4082817047F0B503460024AA
:100B700000260025002040F66A17B94200D100BFC8
:100B80001846C1F3421401F01F06012707FA06F5C3
:100B9000012C01D10C3004E0022C01D1103000E016
:100BA00014301AB107682F43076002E00768AF43AB
:100BB0000760F0BD1AB1838A0B43838202E0838A07
:100BC0008B4383827047028A4FF6F0731A40028289
:100BD000028A0A430282704782894FF2FF731A40E9
:100BE000828182890A438281704721B1828942F0E1
:100BF0000202828104E082894FF6FD731A408281ED
:100C00007047028A4FF6DF731A400282028A0A4353
:100C10000282704721B1028A42F48042028204E0DB
:100C2000028A4BF6FF731A4002827047C1F3080232
:100C30008280704701468888C0F308007047818928
:100C400041F0010181817047028BD2B20283028B95
:100C500042EA012202837047028B02F47F42028340
:100C6000028B0A430283704721B1828A42F020023C
:100C7000828204E0828A4FF6DF731A4082827047D4
:100C800021B1828A42F01002828204E0828A4FF609
:100C9000EF731A408282704721B1828A42F00802C3
:100CA000828204E0828A4FF6F7731A40828270478C
:100CB00021B1828942F40042828103E08289C2F339
:100CC0000E028281704721B1828A42F400628282E0
:100CD00004E0828A4FF2FF731A4082827047828A50
:100CE0004FF6FB731A408282828A0A4382827047DF
:100CF00021B1828A42F00202828204E0828A4FF6A7
:100D0000FD731A408282704702460020B1F5007FD1
:100D100000D100BF13880B400BB1012000E0002080
:100D2000704701F40072B2F5007F00D100BFCA43E2
:100D30000280704770B50246002400230025002081
:100D400040F66A16B14200D100BFC1F3421501F06E
:100D50001F03012606FA03F3012D02D196893340C1
:100D600006E0022D02D1168A334001E0968A334014
:100D70000C12012606FA04F41688344013B10CB1A3
:100D8000012000E0002070BD10B50022002340F6D5
:100D90006A14A14200D100BF0A1201249440A3B2F8
:100DA000DC43048010BD00000038014000440040D6
:100DB00000480040004C00400050004000204449E2
:100DC0000860091D0860091D0860091D0860414888
:100DD0003F4914310860704700213D498279002A5B
:100DE0003AD00A46126803689A430B461A600A1DF5
:100DF000126803689A430B1D1A60027911440A684D
:100E000003681A430A60324A0832126803689A4338
:100E10002F4B08331A601A1D126803689A432C4B33
:100E20000C331A604279102A0ED11A1F1268036817
:100E30001A43274B08331A601A1D126803681A43B5
:100E4000234B0C331A600DE02149427911440A68A2
:100E500003681A430A6005E0027911440A680368CE
:100E60009A430A6070470021016001710C214171B1
:100E70000021817170471649103109680143144AF5
:100E800010321160704701460020114A1432126876
:100E90000A400AB1012000E0002070470C491431DB
:100EA00008607047014600200022094B1B6803EAD6
:100EB0000102074B14331B680B4013B10AB1012028
:100EC00000E00020704702491431086070470000BC
:100ED00000040140FFFF0F0001684FF6FE72114051
:100EE00001600021016041608160C1608D498842DC
:100EF00008D18C490839496841F00F01894A083AFC
:100F000051608AE087491431884208D185490839FF
:100F1000496841F0F001834A083A51607DE0814917
:100F20002831884208D17F490839496841F4706105
:100F30007C4A083A516070E07A493C31884208D1D5
:100F400078490839496841F47041764A083A516055
:100F500063E074495031884208D1724908394968C0
:100F600041F470216F4A083A516056E06D4964318E
:100F7000884208D16B490839496841F47001694ACF
:100F8000083A516049E067497831884208D165499B
:100F90000839496841F07061624A083A51603CE0A2
:100FA0006149884206D1011F096841F00F01021F03
:100FB000116032E05C491431884208D15A49091F56
:100FC000096841F0F001584A121F116025E05649A6
:100FD0002831884208D15449091F096841F47061D9
:100FE000514A121F116018E04F493C31884208D124
:100FF0004D49091F096841F470414B4A121F1160A5
:101000000BE049495031884207D14749091F096817
:1010100041F47021444A121F1160704710B500223C
:10102000026847F6F0739A430C6A8B6823430C6995
:1010300023434C6923438C692343CC6923434C6A83
:1010400023438C6A23431A430260CB6843600B68D6
:1010500083604B68C36010BD002101604160816006
:10106000C160016141618161C1610162416281626E
:10107000704721B1026842F00102026004E0026898
:101080004FF6FE731A40026070471AB103680B43B3
:10109000036002E003688B43036070474160704760
:1010A0000146486880B2704701460020002201F0E6
:1010B00080531BB11C4B083B1A6802E0194B083BDC
:1010C0001A6802EA01030BB1012000E0002070471A
:1010D00000F0805119B11449091F086002E011495C
:1010E00008394860704701460020002201F0805313
:1010F0001BB10D4B083B1A6802E00A4B083B1A680B
:1011000002EA01030BB1012000E00020704700F06B
:10111000805119B10449091F086002E001490839EA
:1011200048607047080002400804024001214FF463
:10113000C87000F029FBA74908600846006810B98C
:10114000A5A000F03BFC01214804FFF7DCFB0121D6
:101150000420FFF7CBFB0420A549088003208870FA
:101160001820C870A348FFF705F90820A049088097
:101170000420C8709F48FFF7FDF84FF4E1309E4906
:10118000086000208880C88008810C2048810020E9
:1011900088819A48FFF751FC01219848FFF7D9FC54
:1011A00001211020FFF7A2FB4FF400509049088066
:1011B000022088701020C8709148FFF7DBF80120EA
:1011C0008B490880022088701020C8708948FFF77A
:1011D000D1F8202086490880022088702820C87015
:1011E0008448FFF7C7F805210020FFF7D9F9002050
:1011F00084490871202008600C2048710120887102
:101200000846FFF7E9FD17207F4908700520487060
:1012100088700120C8700846FEF7E3FF0421002013
:10122000FFF7BEF9002077490871102008600C20F4
:101230004871012088710846FFF7CEFD0A207249E7
:1012400008700420487088700120C8700846FEF7B6
:10125000C8FF6E4800684FF47A72B0FBF2F1B1F14A
:10126000807F00D31DE021F07F40401E4FF0E02240
:10127000506150170F22002807DA13071D0E644B28
:1012800000F00F04241F1D5503E013071C0E614BD3
:101290001C5400BF00204FF0E02290610720106135
:1012A00000BF01218804FFF72EFB01210820FFF772
:1012B0001DFB4FF480604E49088003208870182081
:1012C000C8705548FFF756F84FF400604849088049
:1012D0000420C8705048FFF74DF84FF4E1304649FC
:1012E000086000208880C88008810C204881002088
:1012F00088814A48FFF7A1FB012240214748FFF7B8
:1013000059FC01214548FFF724FC27203E4908707D
:101310000020887048700120C8700846FEF761FF01
:10132000012240F225513D48FFF71FFC01210846EC
:10133000FFF7CFFA3A48FFF7CFFD3848001D39498B
:10134000086039484860002088600820C860002094
:1013500008618020486100208861C86120200862FF
:10136000C0014862002088622D48FFF757FE012225
:1013700006212B48FFF789FE01212948FFF779FE56
:101380000D2021490870012048708870C8700846F7
:10139000FEF727FF1DE025480078012819D100201D
:1013A000234908700BE02048214A1278815C21A073
:1013B00000F004FB1E480078401C1D4908701C48C2
:1013C00000780828EFDB1CA000F0F8FA002017498D
:1013D0000870E0E72400002043616E6E6F742063A4
:1013E000726561746520627566666572200A0D001B
:1013F0001400002000080140540000200044004078
:101400000010014018000020200000203C000020B7
:1014100018ED00E000E400E0000C0140004800404E
:10142000300002406400002029000020310000202C
:1014300033000020257820000A0D000010B54FF47D
:101440008060FFF750FE01280ED18002FFF75FFE9B
:1014500001203149087031A000F0B0FA334800682B
:1014600040F02000314908604FF40070FFF73BFE68
:1014700001280ED14002FFF74AFE012026490870DC
:101480002BA000F09BFA2948006840F01000274983
:10149000086010BD10B540F225512B48FFF74AFCFB
:1014A00001280CD140F225512748FFF73AFC264885
:1014B000FFF7C0FBC4B221462348FFF7B7FB10BDBE
:1014C00010B52020FFF7EEFC012805D12020FFF702
:1014D000FAFC1EA000F072FA10BD10B51020FFF744
:1014E000E1FC012805D11020FFF7EDFC1BA000F066
:1014F00065FA10BD704700BFFEE700BFFEE700BF02
:10150000FEE700BFFEE77047704770471748006866
:10151000401C1649086070473100002048616C6625
:10152000207472616E736D69740A0D0010040140BD
:101530005472616E736D697420436F6D706C657465
:10154000656C790A0D000000004800404558544978
:101550005F4C696E6535200A0D00000045585449FE
:101560005F4C696E6534200A0D00000034000020D5
:101570000CB50020019000906C48006840F4803069
:101580006A49086000BF6948006800F400300090B4
:101590000198401C0190009818B90198B0F5A06F0F
:1015A000F1D16248006800F4003010B101200090D1
:1015B00001E0002000900098012843D15C480068B9
:1015C00040F010005A4908600846006820F0030007
:1015D00008600846006840F0020008605348406810
:1015E000524948600846406848600846406840F4F0
:1015F000806048600846406820F47C1048600846D7
:10160000406840F4E81048600846006840F0807088
:10161000086000BF4548006800F000700028F9D05D
:101620004248406820F0030040494860084640684E
:1016300040F00200486000BF3C48406800F00C00E9
:101640000828F9D10CBD10B5FFF792FF10BD10B5F9
:101650003648006840F00100344908600846406898
:10166000344908403149486008460068324908401A
:101670002E4908600846006820F48020086008466B
:10168000406820F4FE0048604FF41F008860FFF7B8
:10169000DAFF4FF000602949086010BD10B5002145
:1016A00000200022214B5B6803F00C0121B10429CA
:1016B00006D0082928D107E0214B224C236027E0DF
:1016C0001F4B204C236023E0184B5B6803F4701021
:1016D000164B5B6803F48032022303EB904022B97F
:1016E000194B4343174C23600DE0104B5B6803F428
:1016F000003323B1144B4343124C236003E0104BDF
:101700004343104C236003E00D4B0E4C236000BF9D
:1017100000BF064B5B68C3F303130C4CE15C094B41
:101720001B68CB40074C236010BD00000010024036
:10173000002002400000FFF8FFFFF6FE08ED00E089
:1017400000127A003C00002000093D00400000200B
:10175000002107E0002200E0521C42F6FF239A42DB
:10176000FAD3491C8142F5D3704770B504460D4643
:10177000A1B20448FFF75AFA0120FFF7E9FF20461B
:1017800070BD0000004400402DE9F04105460E46C2
:10179000002D19DD142000F0BAF80446A4B105FBB1
:1017A00006F7384600F0B3F82060206840B1666064
:1017B000A7600020A081E08120612046BDE8F08183
:1017C000204600F0D3F800BF0020F7E710B504462C
:1017D00061B15CB152B12160636002FB03F0A060B3
:1017E0000020A081E0812061204610BD0020FCE7A0
:1017F00070B504460D46E389216801EB4300294694
:10180000626800F047F9E089A1880844E081E08936
:10181000A168884201D30020E08170BD01468A683A
:101820000869904201D3012070470020FCE770B5A1
:1018300004460D462046FFF7F1FF48B929462046E9
:10184000FFF7D6FF6168206908442061012070BD60
:101850000020FCE770B504460D46A389206800EB24
:1018600043012846626800F015F9A089A188084460
:10187000A081A089A168884201D30020A08170BD09
:101880000146086908B9012070470020FCE770B5DF
:1018900004460D462046FFF7F3FF48B92946204687
:1018A000FFF7D8FF61682069401A2061012070BDF0
:1018B0000020FCE7014608890A8A801A80B2704736
:1018C00070B503460C469888604381B21869884217
:1018D0001BD35AB9988908449D68B0FBF5F605FBFF
:1018E000160098811869401A18610CE0012A0AD183
:1018F000D889401A9D68B0FBF5F605FB1600D88123
:101900001869401A1861012070BD0020FCE770B50D
:10191000064600F007F9056806F10B0020F0070401
:10192000B4429CBF002070BD2B466A68BAB11068F3
:10193000A04210D304F1080188423CBF50685860AF
:1019400007D35168101941601168091B0160586084
:101950001460101D70BD13465268002AE7D121465D
:10196000284600F0E7F80028DED170BD70B50446C7
:10197000051F00F0D7F80068002C14BF446870BD44
:10198000002C18BFAC423CBF20466468F8D3016805
:101990000A18AA4218BF456003D12A6805461144B7
:1019A000016028684119A1421CBF6C6070BD61686C
:1019B000696021680844286070BD00000FB40449C4
:1019C00010B503AA029800F059F910BC5DF814FB99
:1019D000500000202DE9F0410E4604460020206210
:1019E0002046E168884730B3252805D0D4E9012195
:1019F0009047206A401CF2E7E168204600278847AC
:101A0000050018D0A5F14100192802D820354FF45F
:101A100000673246294620462760FEF7A1FB40B109
:101A2000012804D0F61D26F007060836D8E7361D33
:101A3000D6E72846DAE7206ABDE8F08170B50446AB
:101A40000D4621461068AFF300802188090502D5B4
:101A50000F4A7A4402E00E4A7A440E32002104F121
:101A6000240305E000F00F060009965D5E54491C52
:101A70000028F7D120780023000704D5702D02D06C
:101A800009B1022311322046BDE8704000F09CB835
:101A90002E040000032A40F2308010F0030C00F006
:101AA000158011F8013BBCF1020F624498BF11F898
:101AB00001CB00F8013B38BF11F8013BA2F1040251
:101AC00098BF00F801CB38BF00F8013B11F00303C9
:101AD00000F0E680083AC0F0088051F8043B083A6C
:101AE00051F804CBA0E80810F5E7121D5CBF51F8CF
:101AF000043B40F8043BAFF30080D20724BF11F849
:101B0000013B11F801CB48BF11F8012B24BF00F8AD
:101B1000013B00F801CB48BF00F8012B704770472C
:101B20007047704700487047980000207047704722
:101B30007047704738B504460A4600206946AFF33F
:101B40000080002808BF38BD02460099204600F0FA
:101B5000DDF8012038BD012000F00EB9F8B5AFF373
:101B60000080054600200C46102000BF0646A8193C
:101B7000A0420DD9324669460020AFF3008007002D
:101B800008BF00F0F9F80098A04218BF0546C41934
:101B9000FFF7C8FF05600746F01D20F00700461953
:101BA000284600F00AF8B44208BFF8BDA21B31462F
:101BB0003868BDE8F84000F0A9B800210160C0E92C
:101BC00001107047102070472DE9F0470D469946E7
:101BD0009246044600F124080168880604D5E069AD
:101BE00021F01001216000E00120A84201DD471B27
:101BF00000E00027A1697A1902EB0900081AA06128
:101C00002078C00602D42046AFF30080002608E00A
:101C1000D4E901211AF806009047206A401C761C7E
:101C200020624E45F4DB2078C0060AD52046AFF38B
:101C3000008006E0D4E9012130209047206A401C52
:101C40002062381EA7F10107F4DC07E0D4E9012186
:101C500018F805009047206A401C2062281EA5F154
:101C60000105F3DC2046AFF300802078000602D5A2
:101C70000220BDE8F0870120FBE70000074B70B5AC
:101C80000D467B4400F061F80446284600F070F8E9
:101C900010B14FF0FF3070BD204670BDE5FAFFFF78
:101CA00010B5203AC0F00B80B1E81850203AA0E8F7
:101CB0001850B1E81850A0E81850BFF4F5AF5FEA2B
:101CC000027C24BFB1E81850A0E8185044BF18C9DE
:101CD00018C0BDE810405FEA827C24BF51F8043B85
:101CE00040F8043B08BF7047D20728BF31F8023BD9
:101CF00048BF11F8012B28BF20F8023B48BF00F86D
:101D0000012B704700487047900000200346406850
:101D10008C46002818BF88423CBF03464068F8D371
:101D200018681844884207D00CF1030020F007001F
:101D3000001D411A521A0146081D0A60FFF716BE1F
:101D400001694A1C02610878704700B58FB0CDE97F
:101D500001310021059105497944CDE9031011466F
:101D60006846FFF737FE0FB000BD0000E5FFFFFF3C
:101D7000007B00F08000704710B500F035F8BDE83A
:101D8000104000F02CB870477546FFF7BBFFAE4619
:101D900005006946534620F00700854618B020B577
:101DA000FEF708FABDE820404FF000064FF00007AC
:101DB0004FF000084FF0000B21F00701AC46ACE8F3
:101DC000C009ACE8C009ACE8C009ACE8C0098D4660
:101DD00070470446AFF300802046FEF7D7F900288D
:101DE00001D000F029B8704710B5012805D00021B6
:101DF00003A000F027F8012010BD09A1F8E70000BA
:101E000053494752544D454D3A204F7574206F66E3
:101E10002068656170206D656D6F7279000000004B
:101E20003A2048656170206D656D6F727920636F2F
:101E3000727275707465640001491820ABBEFEE7CC
:101E40002600020070B505460C460A2000E06D1C15
:101E500000F011F835B128780028F8D102E0641CB0
:101E600000F009F814B120780028F8D1BDE87040DE
:101E70000A20AFF3008008B569468DF80000032002
:101E8000ABBE08BD30313233343536373839414294
:101E900043444546403058003031323334353637CC
:101EA000383961626364656640307800CC1E000892
:101EB000000000205400000028010008201F000836
:101EC000540000209C0600004401000800000000AF
:101ED00001020304010203040607080902040608BC
:101EE00000000000000000000000000000000000F2
:101EF00000000000000000000000000000000000E2
:101F0000000000000000000000A24A0400000000E1
:101F10000000000001020304060708090000000099
:04000005080000ED02
:00000001FF
