:020000040800F2
:10000000B806002091010008291100082B110008F2
:100010002F110008331100083711000800000000FC
:100020000000000000000000000000003B1100087C
:100030003D110008000000003F11000841110008B8
:10004000AB010008AB010008AB010008AB010008E0
:10005000AB010008AB010008AB010008AB010008D0
:10006000AB010008AB0100080F110008AB0100084C
:10007000AB010008AB010008AB010008AB010008B0
:10008000AB010008AB010008AB010008AB010008A0
:10009000AB010008AB010008AB010008F510000837
:1000A000AB010008AB010008AB010008AB01000880
:1000B000AB010008AB010008AB010008AB01000870
:1000C000AB010008AB010008AB010008AB01000860
:1000D000AB010008AB010008AB010008AB01000850
:1000E000AB010008AB010008AB01000800F002F80A
:1000F00000F03FF80AA090E8000C82448344AAF183
:100100000107DA4501D100F034F8AFF2090EBAE880
:100110000F0013F0010F18BFFB1A43F0010318473B
:100120007815000098150000103A24BF78C878C1EF
:10013000FAD8520724BF30C830C144BF04680C60ED
:10014000704700000023002400250026103A28BF35
:1001500078C1FBD8520728BF30C148BF0B60704739
:10016000642901F09D81002070471FB51FBD10B5A7
:1001700010BD01F059FA1146FFF7F7FF00F0C6FE77
:1001800001F077FA03B4FFF7F2FF03BC01F07CFA49
:100190000948804709480047FEE7FEE7FEE7FEE71B
:1001A000FEE7FEE7FEE7FEE7FEE7FEE70448054957
:1001B000054A064B7047000093120008ED00000846
:1001C000B8000020B8060020B8020020B8020020C5
:1001D00031490143314A1160704770B50021002355
:1001E0000F22C47804B32D4C246804F4E064C4F5F1
:1001F000E064210AC1F10403CA40447804FA03F11F
:100200008478144021430901254C0678A1550478CF
:1002100004F01F050124AC4005786D11AD0005F117
:10022000E025C5F8004109E0047804F01F05012429
:10023000AC401C4D0678761145F8264070BD1A4A30
:100240000A400243154B1B1F1A60704739B1134A0D
:10025000121D12680243114B1B1D1A6006E00F4A63
:10026000121D126882430D4B1B1D1A607047042833
:1002700008D14FF0E021096941F004014FF0E0227C
:10028000116107E04FF0E021096921F004014FF00E
:10029000E0221161704700000000FA050CED00E05B
:1002A00000E400E080E100E080FFFF1F10B504469D
:1002B000D748844208D10121042000F04BFB0021E3
:1002C000042000F047FB46E0D248844208D10121D7
:1002D000082000F03FFB0021082000F03BFB3AE043
:1002E000CD48844208D10121102000F033FB0021C9
:1002F000102000F02FFB2EE0C848844208D10121D5
:10030000202000F027FB0021202000F023FB22E02A
:10031000C348844208D10121402000F01BFB00218A
:10032000402000F017FB16E0BE48844208D10121AE
:10033000802000F00FFB0021802000F00BFB0AE082
:10034000B948844207D10121801500F003FB002148
:10035000A01500F0FFFA10BD10B50121084600F00D
:10036000F9FA0021012000F0F5FA10BD2DE9F04165
:10037000024600250026002000230024002791F8D3
:1003800003C00CF00F0591F803C00CF0100CBCF189
:10039000000F03D091F802C04CEA050591F800C0A7
:1003A000BCF1000F31D0146800202BE04FF0010C9D
:1003B0000CFA00F3B1F800C00CEA03069E4220D10B
:1003C00083004FF00F0C0CFA03F7BC4305FA03FC53
:1003D0004CEA040491F803C0BCF1280F06D14FF099
:1003E000010C0CFA00FCC2F814C00AE091F803C03A
:1003F000BCF1480F05D14FF0010C0CFA00FCC2F81B
:1004000010C0401C0828D1D31460B1F800C0BCF162
:10041000FF0F34DD546800202EE000F1080C4FF08F
:10042000010808FA0CF3B1F800C00CEA03069E427A
:1004300021D183004FF00F0C0CFA03F7BC4305FAEF
:1004400003FC4CEA040491F803C0BCF1280F05D169
:1004500000F1080C08FA0CF8C2F8148091F803C0F7
:10046000BCF1480F07D100F1080C4FF0010808FA61
:100470000CF8C2F81080401C0828CED35460BDE8A8
:10048000F0814FF6FF710180022181700421C1705B
:1004900070470246002093680B400BB1012000E03A
:1004A000002070470146886880B2704702460020ED
:1004B000D3680B400BB1012000E0002070470146DB
:1004C000C86880B2704701617047416170470AB1E6
:1004D000016100E041617047C16070474FF48032B4
:1004E0000A43826181618261826982697047024642
:1004F00000204E4B18684FF68073184040EA0210F7
:1005000008434A4B186070474949C8617047F0B5C5
:100510000A46002300240021002500F00046B6F121
:10052000004F02D1414EF16901E0404E7168C0F3C5
:10053000034583B200F44016B6F5401F08D121F000
:1005400070613A4E766826F07066384F7E6012E031
:1005500000F48016B6F5801F06D1032606FA05F4CE
:10056000A14341F0706106E0460D360103FA06F63C
:10057000B14341F0706122B1460D360103FA06F62F
:10058000314300F00046B6F1004F02D1274EF16131
:1005900001E0264E7160F0BD30B500228B071C0FC4
:1005A0000F2303FA04F2214B08338C1053F8243044
:1005B00093431E4C08348D1044F8253023468C108C
:1005C00053F824308C07240F00FA04F42343174C0B
:1005D00008348D1044F8253030BD70B505460C4602
:1005E000A007000F05FA00F010490831A21041F8E9
:1005F0002200A1100FA000F013FFA107090F05FAB8
:1006000001F000F0E3FE70BD0949DC31086070477D
:1006100000080140000C014000100140001401409E
:1006200000180140001C0140002001400000014072
:10063000000020424558544943525B25645D203DEB
:1006400020000000DF48006840F00100DD4908603C
:1006500008464068DC490840DA49486008460068B6
:10066000DA490840D74908600846006820F480202D
:1006700008600846406820F4FE0048604FF41F0000
:1006800088607047CF49096821F48031CD4A1160F4
:100690001146096821F480211160B0F5803F03D034
:1006A000B0F5802F0ED106E0C649096841F48031CB
:1006B000C44A116007E0C349096841F4A021C14A56
:1006C000116000E000BF00BF704710B50146002276
:1006D000002300204A11012A02D1BA4C236806E007
:1006E000022A02D1B74C236A01E0B64C636A01F0DA
:1006F0001F02012494401C400CB1012000E00020A6
:1007000010BD38B5002000900024002500BF312026
:10071000FFF7DBFF05460098401C00900098B0F5FD
:10072000A06F01D0002DF2D03120FFF7CEFF08B12D
:10073000012400E00024204638BD01460020A14AE3
:10074000106820F0F80040EAC10010607047A0492E
:1007500008607047024600209A4B586820F47C10CD
:1007600042EA01031843974B58607047984908665E
:10077000704701460020934A506820F00300084368
:10078000506070478F48406800F00C007047014689
:1007900000208C4A506820F0F000084350607047F9
:1007A00001460020874A506820F4E060084350600A
:1007B000704701460020834A506820F4605040EAA8
:1007C000C1005060704729B17E4A527A02437D4B86
:1007D0005A7204E07B4A527A82437A4B5A727047CB
:1007E0007B49D8310860704701460020754A50683F
:1007F00020F440400843506070470021714A203285
:100800001170704A82F82010012802D004280AD101
:1008100004E001216B4A2032117005E00521694A8C
:100820002032117000E000BF00BF704769490860C6
:1008300070476449096A0143624A11627047654919
:1008400044390860704730B500210022002400239D
:100850005C4D6D6805F00C0121B1042905D0082913
:1008600023D105E05C4D056022E05B4D05601FE093
:10087000544D6D6805F47012524D6D6805F4803466
:10088000022505EB92421CB9544D554305600BE01F
:100890004C4D6D6805F400351DB1504D5543056054
:1008A00002E04D4D5543056002E04B4D056000BF31
:1008B00000BF444D6D6805F0F0010909484D6B5CBF
:1008C0000568DD4045603F4D6D6805F4E061090A4B
:1008D000434D6B5C4568DD4085603A4D6D6805F4BD
:1008E0006051C90A3E4D6B5C4568DD40C560354DC1
:1008F0006D6805F44041890B3A4D6B5CC568B5FBEA
:10090000F3F5056130BD29B12E4A526902432D4BE2
:100910005A6104E02B4A526982432A4B5A6170475C
:1009200029B1284A92690243264B9A6104E0254A7C
:1009300092698243234B9A61704729B1214AD26957
:100940000243204BDA6104E01E4AD26982431D4B08
:10095000DA61704729B11B4AD2680243194BDA6049
:1009600004E0184AD2688243164BDA60704729B116
:10097000144A12690243134B1A6104E0114A1269C6
:100980008243104B1A617047124940390860704722
:100990000F49C86470470B49C87170470948406ADD
:1009A00040F0807007494862704701460020054AC0
:1009B00092680A400AB1012000E000207047014916
:1009C00088727047001002400000FFF8FFFFF6FE3B
:1009D000000042428004424200127A0000093D00B9
:1009E000000000201000002010B50446FB4884429F
:1009F00009D101218803FFF7ADFF00214FF48040AA
:100A0000FFF7A8FF32E0F648844209D101214804EB
:100A1000FFF7ADFF00214FF40030FFF7A8FF25E0FE
:100A2000F048844209D101218804FFF7A0FF00218A
:100A30004FF48020FFF79BFF18E0EB48844209D178
:100A40000121C804FFF793FF00214FF40020FFF7B6
:100A50008EFF0BE0E548844208D101210805FFF72D
:100A600086FF00214FF48010FFF781FF10BD2DE9B4
:100A7000F04786B005460E460024A24600BFA146B8
:100A80000027B08900B100BF2F462C8A4CF6FF70BA
:100A90000440F08804432C82AC894EF6F3100440E5
:100AA000B08831890843718908430443AC81AC8A1A
:100AB0004FF6FF400440B0890443AC8201A8FFF721
:100AC000C2FEC648874202D1DDF810A001E0DDF881
:100AD0000CA0A88900F4004040B10AEBCA0000EB6A
:100AE0000A1031684900B0FBF1F807E00AEBCA00D0
:100AF00000EB0A1031688900B0FBF1F86420B8FB04
:100B0000F0F004012009642101FB1089A88900F498
:100B1000004040B1322000EBC900B0FBF1F000F022
:100B20000700044308E0322000EB09106421B0FB09
:100B3000F1F000F00F0004432C8106B0BDE8F0870F
:100B40004FF41651016000218180C18001810C2188
:100B5000418100218181704710B502460020108A32
:100B60004FF2FF0318400B884C8823438C882343A3
:100B7000CC8823431843108210BD0021018041809E
:100B80008180C180704721B1828942F40052828104
:100B900004E082894DF6FF731A4082817047F0B5F8
:100BA0000346002400260025002040F66A17B942BB
:100BB00000D100BF1846C1F3421401F01F060127FF
:100BC00007FA06F5012C01D10C3004E0022C01D10A
:100BD000103000E014301AB107682F43076002E0BC
:100BE0000768AF430760F0BD1AB1838A0B43838265
:100BF00002E0838A8B4383827047028A4FF6F07348
:100C00001A400282028A0A430282704782894FF2A6
:100C1000FF731A40828182890A438281704721B121
:100C2000828942F00202828104E082894FF6FD73DC
:100C30001A4082817047028A4FF6DF731A4002829F
:100C4000028A0A430282704721B1028A42F480423A
:100C5000028204E0028A4BF6FF731A400282704758
:100C6000C1F308028280704701468888C0F30800FB
:100C70007047818941F0010181817047028BD2B2B6
:100C80000283028B42EA012202837047028B02F444
:100C90007F420283028B0A430283704721B1828A1A
:100CA00042F02002828204E0828A4FF6DF731A400B
:100CB0008282704721B1828A42F01002828204E06F
:100CC000828A4FF6EF731A408282704721B1828A7E
:100CD00042F00802828204E0828A4FF6F7731A40DB
:100CE0008282704721B1828942F40042828103E00E
:100CF0008289C2F30E028281704721B1828A42F456
:100D00000062828204E0828A4FF2FF731A4082827C
:100D10007047828A4FF6FB731A408282828A0A43A6
:100D20008282704721B1828A42F00202828204E00C
:100D3000828A4FF6FD731A40828270470246002075
:100D4000B1F5007F00D100BF13880B400BB101202B
:100D500000E00020704701F40072B2F5007F00D17E
:100D600000BFCA430280704770B5024600240023CA
:100D70000025002040F66A16B14200D100BFC1F341
:100D8000421501F01F03012606FA03F3012D02D1DB
:100D90009689334006E0022D02D1168A334001E0E5
:100DA000968A33400C12012606FA04F41688344061
:100DB00013B10CB1012000E0002070BD10B500227D
:100DC000002340F66A14A14200D100BF0A12012498
:100DD0009440A3B2DC43048010BD00000038014001
:100DE0000044004000480040004C004000500040DB
:100DF000002044490860091D0860091D0860091D9C
:100E0000086041483F4914310860704700213D495E
:100E10008279002A3AD00A46126803689A430B4640
:100E20001A600A1D126803689A430B1D1A60027942
:100E300011440A6803681A430A60324A0832126889
:100E400003689A432F4B08331A601A1D126803680F
:100E50009A432C4B0C331A604279102A0ED11A1F78
:100E6000126803681A43274B08331A601A1D126868
:100E700003681A43234B0C331A600DE02149427971
:100E800011440A6803681A430A6005E002791144B4
:100E90000A6803689A430A60704700210160017183
:100EA0000C21417100218171704716491031096888
:100EB0000143144A10321160704701460020114A64
:100EC000143212680A400AB1012000E00020704785
:100ED0000C49143108607047014600200022094B7C
:100EE0001B6803EA0102074B14331B680B4013B164
:100EF0000AB1012000E00020704702491431086067
:100F00007047000000040140FFFF0F00012148046A
:100F1000FFF713FD01210420FFF702FD04206949BA
:100F20000880032088701820C8706748FFF71EFAF1
:100F30000820644908800420C8706348FFF716FA47
:100F40004FF4E1306149086000208880C880088142
:100F50000C204881002088815D48FFF788FD012131
:100F60005B48FFF710FE01211020FFF7D9FC4FF47A
:100F7000005054490880022088701020C8705548DD
:100F8000FFF7F4F901204F490880022088701020F3
:100F9000C8704D48FFF7EAF920204A49088002202E
:100FA00088702820C8704848FFF7E0F90521002024
:100FB000FFF7F2FA002048490871202008600C2051
:100FC0004871012088710846FFF720FF1720434928
:100FD00008700020487088700120C8700846FFF72C
:100FE000FCF8102037490880022088702820C8703B
:100FF0003548FFF7BBF904210020FFF7CDFA0020A8
:1010000035490871102008600C2048710120887152
:101010000846FFF7FBFE0A203049087000204870A0
:1010200088700120C8700846FFF7D7F82C48006880
:101030004FF47A72B0FBF2F1B1F1807F00D31DE082
:1010400021F07F40401E4FF0E022506150170F22E8
:10105000002807DA13071D0E224B00F00F04241F8F
:101060001D5503E013071C0E1F4B1C5400BF00202E
:101070004FF0E02290610720106100BF20E00020C7
:1010800011490C31086000BF1848006840F2E73190
:101090008842F9D101200C490C31086000BF134887
:1010A000006840F2E7318842F9D11148006840F009
:1010B00020000F4908600846006840F010000860F2
:1010C000DDE700001400002000080140440000207B
:1010D00000440040001001401800002020000020C3
:1010E0002C00002018ED00E000E400E024000020C7
:1010F0001004014010B52020FFF7EEFE012805D1B5
:101100002020FFF7FAFE1AA000F08AF910BD10B5F2
:101110001020FFF7E1FE012805D11020FFF7EDFEBA
:1011200017A000F07DF910BD704700BFFEE700BFBB
:10113000FEE700BFFEE700BFFEE77047704770475D
:1011400010B513480068401C114908600846006843
:10115000B0F57A7F0AD1002008600E480168006867
:10116000401C0C4B18600CA000F05AF910BD000098
:10117000455854495F4C696E6535200A0D000000E2
:10118000455854495F4C696E6534200A0D000000D3
:1011900024000020280000205379737469636B20B9
:1011A000696E74657272757074205B25645D200AC7
:1011B0000D0000000CB50020019000906C48006804
:1011C00040F480306A49086000BF6948006800F454
:1011D000003000900198401C0190009818B90198C7
:1011E000B0F5A06FF1D16248006800F4003010B192
:1011F0000120009001E0002000900098012843D1D8
:101200005C48006840F010005A49086008460068D1
:1012100020F0030008600846006840F00200086003
:10122000534840685249486008464068486008464C
:10123000406840F4806048600846406820F47C10B4
:1012400048600846406840F4E81048600846006876
:1012500040F08070086000BF4548006800F00070F2
:101260000028F9D04248406820F003004049486017
:101270000846406840F00200486000BF3C484068B3
:1012800000F00C000828F9D10CBD10B5FFF792FF53
:1012900010BD10B53648006840F0010034490860C0
:1012A00008464068344908403149486008460068AB
:1012B000324908402E4908600846006820F4802022
:1012C00008600846406820F4FE0048604FF41F00A4
:1012D0008860FFF7DAFF4FF000602949086010BD11
:1012E00010B5002100200022214B5B6803F00C01A7
:1012F00021B1042906D0082928D107E0214B224C2E
:10130000236027E01F4B204C236023E0184B5B68D1
:1013100003F47010164B5B6803F48032022303EB76
:10132000904022B9194B4343174C23600DE0104BFA
:101330005B6803F4003323B1144B4343124C236026
:1013400003E0104B4343104C236003E00D4B0E4C65
:10135000236000BF00BF064B5B68C3F303130C4C54
:10136000E15C094B1B68CB40074C236010BD0000BB
:1013700000100240002002400000FFF8FFFFF6FED0
:1013800008ED00E000127A002C00002000093D006A
:1013900030000020002107E0002200E0521C42F64D
:1013A000FF239A42FAD3491C8142F5D3704770B5A6
:1013B00004460D46A1B20448FFF752FC0120FFF796
:1013C000E9FF204670BD0000004400402DE9F041D7
:1013D000054600261F2413E0042E03D10CA000F0C4
:1013E0001FF80026761C45FA04F707F0010018B133
:1013F00008A000F015F802E007A000F011F8641E44
:10140000002CE9DA05A000F00BF8BDE8F08100003F
:101410002000000031000000300000000A0D000034
:101420000FB4044910B503AA029800F0CFF810BC1D
:101430005DF814FB400000202DE9F0410E46044603
:10144000002020622046E168884730B3252805D077
:10145000D4E901219047206A401CF2E7E168204668
:1014600000278847050018D0A5F14100192802D8A7
:1014700020354FF400673246294620462760FEF7A4
:101480006FFE40B1012804D0F61D26F0070608368D
:10149000D8E7361DD6E72846DAE7206ABDE8F081AE
:1014A0002DE9F0410646002410687529314615A53E
:1014B00010D0AFF30080002802DA404212A507E006
:1014C00031688A0701D511A502E0490704D510A5A6
:1014D000012401E0AFF3008000210A2306F1240774
:1014E00007E0B0FBF3F203FB1200303078541046F3
:1014F000491C0028F5D123462A463046BDE8F04174
:1015000000F00BB8000000002D0000002B000000D0
:10151000200000007047704770472DE9F0470D46E6
:1015200099469246044600F124080168880604D5CD
:10153000E06921F01001216000E00120A84201DDF6
:10154000471B00E00027A1697A1902EB0900081A7D
:10155000A0612078C00602D42046AFF300800026A8
:1015600008E0D4E901211AF806009047206A401CDF
:10157000761C20624E45F4DB2078C0060AD5204652
:10158000AFF3008006E0D4E9012130209047206AC3
:10159000401C2062381EA7F10107F4DC07E0D4E903
:1015A000012118F805009047206A401C2062281E7F
:1015B000A5F10105F3DC2046AFF30080207800069A
:1015C00002D50220BDE8F0870120FBE7074B70B58C
:1015D0000D467B4400F011F80446284600F020F840
:1015E00010B14FF0FF3070BD204670BDD9FDFFFF38
:1015F00001694A1C02610878704700B58FB0CDE9D7
:1016000001310021059105497944CDE903101146C6
:101610006846FFF711FF0FB000BD0000E5FFFFFFB8
:10162000007B00F080007047754600F029F8AE4658
:1016300005006946534620F00700854618B020B5DE
:10164000FEF7B4FDBDE820404FF000064FF0000764
:101650004FF000084FF0000B21F00701AC46ACE85A
:10166000C009ACE8C009ACE8C009ACE8C0098D46C7
:1016700070470446AFF300802046FEF783FD00006C
:10168000004870475400002001491820ABBEFEE717
:101690002600020070470000B81600080000002075
:1016A0004400000028010008FC1600084400002047
:1016B0007406000044010008000000000102030459
:1016C00001020304060708090204060800000000DE
:1016D000000000000000000000000000000000000A
:1016E0000000000000A24A0400000000000000000A
:0C16F000010203040607080900000000C6
:04000005080000ED02
:00000001FF
